S01600004D6963726F7350726F6A65746F312E737265638D
S113000071C000008EC000008CC000008AC00000D7
S113001088C0000086C0000084C0000082C00000C8
S113002080C000007EC000007CC000007AC00000D8
S113003078C0000076C0000074C0000072C00000E8
S113004070C0000089C400006CC000006AC00000D9
S113005068C0000066C0000064C0000062C0000008
S113006060C0000089C200005CC000005AC00000EB
S113007058C0000056C0000054C0000052C0000028
S113008050C000004EC000004CC000004AC0000038
S113009048C0000046C0000044C0000042C0000048
S11300A040C000003EC000003CC000003AC0000058
S11300B038C0000036C0000034C0000032C0000068
S11300C030C000002EC000002CC000002AC0000078
S11300D028C0000026C0000024C0000022C0000088
S11300E020C0000011241FBECFEFD1E2DEBFCDBF80
S11300F000E00CBF13E0A0E0B2E0EEE9FEE000E0B7
S11301000BBF02C007900D92A636B107D9F724E0C1
S1130110A6E6B3E001C01D92AE33B207E1F757D1B2
S1130120BCC66ECF94B5926094BD95B5936095BDF1
S113013016BC9AEF97BD20E006C02F5FA99BFECFA7
S113014095B3926095BB2817C0F315BC089594B578
S1130150926094BD95B5926095BD16BC92E097BD32
S113016020E006C02F5FA99BFECF95B3926095BB9C
S11301702817C0F315BC089583E48093C6008091CA
S1130180C00086FFFCCF83E58093C6008091C00049
S113019086FFFCCF86E08093C6008091C00086FF76
S11301A0FCCF089583E48093C6008091C00086FF4D
S11301B0FCCF86E58093C6008091C00086FFFCCF0B
S11301C0089583E48093C6008091C00086FFFCCF2D
S11301D086E48093C6008091C00086FFFCCF08951A
S11301E083E48093C6008091C00086FFFCCF8CE43A
S11301F08093C6008091C00086FFFCCF089583E4FD
S11302008093C6008091C00086FFFCCF84E5809374
S1130210C6008091C00086FFFCCF089583E48093DC
S1130220C6008091C00086FFFCCF88E48093C6009E
S11302308091C00086FFFCCF089583E48093C600BC
S11302408091C00086FFFCCF85E48093C600809136
S1130250C00086FFFCCF089583E48093C60080919C
S1130260C00086FFFCCF8FE48093C6008091C0005D
S113027086FFFCCF0895E1E8F0E080818860808308
S113028080818560808388E09DE3909389008093DA
S11302908800EFE6F0E08081826080830895E8E0E2
S11302A0F1E090819E7F908391B39F7091BB91B355
S11302B0282F207F922B91BB908192609083908114
S11302C09D7F908391B39F7091BB21B330E1839F55
S11302D0C0011124822B81BB808182608083808154
S11302E08D7F808382E390E032CF089580B3806F66
S11302F080BBE7E0F1E0808181608083808182605F
S11303008083E8E0F1E080818E7F808381B38F7009
S113031081BB81B3806281BB808182608083808164
S11303208D7F808382E390E012DF88E2B8DF8CE087
S1130330B6DF86E0B4CF0895E8E0F1E09081916003
S1130340908391B39F7091BB91B3282F207F922B00
S113035091BB90819260908390819D7F908391B3B3
S11303609F7091BB21B330E1839FC0011124822B84
S113037081BB80818260808380818D7F808382E3E2
S113038090E0E5CE0895EF92FF920F931F93CF93E1
S11303907C01C0E00AC0C03131F480EC80DFF80198
S11303A08081CADF01C0C8DFCF5F87010C0F111D38
S11303B0F80180818111EFCFCF911F910F91FF90B0
S11303C0EF90089581E06BDF80E869CF0895CF93C3
S11303D0DF93CDB7DEB72D970FB6F894DEBF0FBE0F
S11303E0CDBF84DFC5D447DF7894B3D480916C0348
S11303F0833009F05EC010926C0310926D03E2DF4B
S113040081E192E0C0DFDBD4833209F452C081E0A1
S113041080936D03D7DF8DE192E0B5DFF12C16C038
S11304200F2D10E0CCD4E82EF80121E030E02C0FA1
S11304303D1FE20FF31F808334E2831304C0C2DF45
S113044085E292E0A0DF8E2D77DFF39485E08F15AF
S113045038F780EC24DF8CE292E095DF0F2EF6E093
S1130460FF2EF02D10C00F2D10E0A9D4F80121E0CB
S113047030E02C0F3D1FE20FF31F80838130C9F061
S11304808AE25ADFF3943BE03F1568F7D6DE90E04A
S11304900EC0E1E0F0E0EC0FFD1FE90FF11D8081DB
S11304A08093C6008091C00086FFFCCF9F5F9C3084
S11304B080F380916C03843009F098CF10926C0320
S11304C081DF84E392E05FDF7AD4F82E81E0F816CE
S11304D081F391E3F91202C000D348C022E3F2127F
S11304E002C060DE43C033E3F3122BC06BDF85E54B
S11304F092E049DF80ECD3DE8FE592E044DF5FD405
S1130500082F81E0F816A9F2013329F45BDF8CE6A9
S113051092E039DF12C0023381F054DF8EE792E0BB
S113052032DF80ECBCDE88E892E02DDF10E003C00F
S113053088ECF8DD1F5F1D30D8F301530230B0F6AC
S113054015C094E3F91202C03CDE10C03BDF8EE715
S113055092E019DF80ECA3DE88E892E014DF10E07B
S113056003C088ECDFDD1F5F1D30D8F38FEC8F0DE7
S1130570843008F0A3CF3ACF1F920F920FB60F9298
S113058011240BB60F920F931F932F933F934F9306
S11305905F936F937F938F939F93AF93BF93CF9307
S11305A0DF93EF93FF93C091C600C33541F480916C
S11305B06C03811104C081E080936C03ACC1809111
S11305C06C03813009F0A7C1C63491F480916A03A9
S11305D081110EC0F7DE89E992E0D5DE83E08093D5
S11305E06C03D0E003C088EC9DDDDF5FDA30D8F324
S11305F0C93471F480916A0381110AC0809169033E
S1130600811106C082E48093C60010926C03D9DD88
S1130610C33551F480916A03811106C08091690346
S11306208F5F8093690335C0CF34C9F480916A0326
S1130630811115C080916903813089F41092690396
S1130640C1DE8AEA92E09FDED0E003C088EC6ADD76
S1130650DF5FDF30D8F310926C03B3DD1AC0C93406
S1130660C1F480916A03811114C0809169038130BF
S113067081F410926903A6DE8AEB92E084DED0E076
S113068003C088EC4FDDDF5FDF30D8F310926C03DA
S113069098DDC63561F480916A03811108C08091A8
S11306A06803811104C08F5F8093680345C0809103
S11306B06803813031F48F5F80936803C0936E03C5
S11306C03BC0823009F038C080916703E82FF0E026
S11306D0E159FC4FC0838F5F8093670390916E0351
S11306E089132AC06FDE8AEC92E04DDE80ECD7DD00
S11306F081ED92E048DED0E00FC00D2F10E090E0D5
S113070002970817190711F48EE216DEF801E15971
S1130710FC4F808111DEDF5F80916E03D81768F390
S113072080E001C08F5F8F30E8F31092670310926E
S1130730680310926C0345DDCC3441F480916A0364
S1130740811104C04DDD83E080936C03C43541F412
S113075080916A03811104C052DD82E080936C03AE
S1130760C83461F480916A03811108C080916B03DD
S1130770811104C08F5F80936B0335C080916B033C
S1130780813031F4C0933A048F5F80936B032BC0A4
S1130790823031F4C0933B048F5F80936B0323C09A
S11307A0833031F4C0933C048F5F80936B031BC090
S11307B08430C9F410926B0310926C0301E012E0D0
S11307C0D8011396CC932ADDEAE3F4E08281D801C0
S11307D012968C931297818111968C931197808134
S11307E08C9310926603C53441F480916A0381119D
S11307F004C08F5F80936A038EC080916A03813046
S113080031F4C0936E038F5F80936A0384C0823097
S113081009F081C080916703E82FF0E0ED52FC4FAE
S1130820C0838F5F8093670390916E0389134EC0DA
S11308302091D3032E3409F049C02091D4032136EA
S113084009F044C02091D5032F3609F03FC0209110
S1130850D6032032D9F52091D7032136B9F520915A
S1130860D803253799F52091D903243779F52091B8
S1130870DA032F3659F52091DB03223739F520911D
S1130880DC03293619F52091DD032A37F9F4209188
S1130890DE032136D9F42091DF032436B9F4209104
S11308A0E0032F3699F48EDD84ED92E06CDDC0E038
S11308B003C088EC37DCCF5FCF30D8F310926A03E3
S11308C01092670383E080936C0325C0891323C0CF
S11308D079DD10E00EC0C12FD0E090E00397C81777
S11308E0D90711F480ECDBDCCD52DC4F888124DDA8
S11308F01F5F80916E03181770F3C0E003C088EC8B
S113090011DCCF5FCF30D8F310926A0310926703E3
S113091084E080936C0380916C03823031F452DD67
S113092083EE92E030DD10926C03FF91EF91DF9142
S1130930CF91BF91AF919F918F917F916F915F9173
S11309404F913F912F911F910F910F900BBE0F90DC
S11309500FBE0F901F9018951F920F920FB60F9213
S113096011240BB60F922F933F934F935F936F9382
S11309707F938F939F93AF93BF93CF93EF93FF9303
S1130980809166038F5F8093660380916D0381304D
S113099059F5809139048F5F80933904833169F468
S11309A011DD83EF92E0EFDC80EC79DC8FEF92E0F5
S11309B0EADC81E08093370417C08F31A9F402DDAB
S11309C089E992E0E0DCC0E003C088ECABDBCF5FF8
S11309D0CF30D8F381E08093380410923904109218
S11309E06D0383E080936C0380916C0383508230A9
S11309F0B0F080910302853140F4843121F4909168
S1130A000402911102C0883050F410926C03DADCB5
S1130A1089E093E0B8DC81E08093000218C0809103
S1130A2000028130A1F48091030298EF980F9C306A
S1130A3030F0843161F480910402811108C0109275
S1130A406C0310920002BEDC8AE193E09CDC80918E
S1130A506603843121F0883211F08C3309F4FCDB15
S1130A60809166038C3328F110926603E1E0F2E092
S1130A7083818F5F83838C33E0F0138282818F5F65
S1130A8082838831B0F0128280818F5F808391816C
S1130A90E92FF0E0E75DFC4F2081281750F4E1E0F6
S1130AA0F2E081E080839F5F91839D3010F080931A
S1130AB00202FF91EF91CF91BF91AF919F918F91DE
S1130AC07F916F915F914F913F912F910F900BBE4A
S1130AD00F900FBE0F901F901895EF92FF920F93F7
S1130AE01F93CF93DF93CDB7DEB728970FB6F89453
S1130AF0DEBF0FBECDBFFE01319688E0DF011D923F
S1130B008A95E9F780E009C0E1E0F0E0EC0FFD1F11
S1130B10E80FF11D90E390838F5F8630A8F352DCD9
S1130B2086E393E030DC00E040C049D1813009F431
S1130B3003C1833209F43CC0011115C017C0292F29
S1130B4030E0F901319641E050E04C0F5D1FE40FB5
S1130B50F51F4081E1E0F0E0EC0FFD1FE20FF31F11
S1130B6040839F5F01C090E0953048F38E832ADC78
S1130B7086E393E008DC80EC90E091DB81ED92E089
S1130B8002DC10E00FC0143019F486E493E0FBDBC0
S1130B90E1E0F0E0EC0FFD1FE10FF11D808190E03A
S1130BA0CBDB1F5F163078F30F5F063008F4BDCF40
S1130BB00981E02EF12C50E3E51AF10882E0E816F1
S1130BC0F1040CF045C0013329F48A8190E0C09708
S1130BD00397F4F5013349F48A81823331F48B812C
S1130BE090E0C097181619069CF1013361F48A81CC
S1130BF0823349F48B81803331F48C8190E0C09747
S1130C00181619062CF1013379F48A81823361F4C0
S1130C108B81803349F48C81803331F48D8190E071
S1130C20C09718161906A4F0013321F58A8182337E
S1130C3009F58B818033F1F48C818033D9F48D8173
S1130C408033C1F48E8190E0C0971816190694F48D
S1130C50B9DB88E493E097DB80EC90E020DB84E56B
S1130C6093E091DB10E004C088EC90E05BDA1F5F56
S1130C701A30D0F3A2E0EA16F1040CF043CF0133AA
S1130C8031F48A8190E0C09703970CF03BCF013395
S1130C9051F48A81823339F48B8190E0C09718161D
S1130CA019060CF42FCF013369F48A81823351F48D
S1130CB08B81803339F48C8190E0C0971816190623
S1130CC00CF420CF013381F48A81823369F48B815F
S1130CD0803351F48C81803339F48D8190E0C09756
S1130CE0181619060CF40ECF013399F48A81823355
S1130CF081F48B81803369F48C81803351F48D814C
S1130D00803339F48E8190E0C097181619060CF4DC
S1130D10F9CE32DA90E00EC0E1E0F0E0EC0FFD1F16
S1130D20E90FF11D80818093C6008091C00086FF89
S1130D30FCCF9F5F963080F328960FB6F894DEBF01
S1130D400FBECDBFDF91CF911F910F91FF90EF9018
S1130D50089586E28093C200E1ECF0E08081886926
S1130D60808383E390E09093C5008093C40008954A
S1130D7087E084B988E783B908951F93CF93DF93FD
S1130D80182FC0E0D0E014C081E090E0CBD923B1AB
S1130D9081E090E0012E02C0880F991F0A94E2F7C7
S1130DA0922F9823D91302C0CF5F01C0C0E0D92F7E
S1130DB0C73050F3892FDF91CF911F910895DF92AF
S1130DC0EF92FF920F931F93CF93DF93CDB7DEB7CC
S1130DD02C970FB6F894DEBF0FBECDBF8CE0E5E0D4
S1130DE0F2E0DE01119601900D928A95E1F780916F
S1130DF03704813009F03DC01092390484E23FC0C9
S1130E0085B1876085B925B1ED2CF12C81E090E0A6
S1130E100D2C02C0880F991F0A94E2F78095822353
S1130E2085B981E090E07ED910E01FC003E0010F96
S1130E30802FA3DF811118C0802F9FDF8823E1F367
S1130E4010923904812F90E09C01220F331F820FEE
S1130E50931F21E030E02C0F3D1F820F931FFC01F4
S1130E60EE0DFF1D80810BC01F5F1430F8F2D39488
S1130E7001C0D12C32E03D1508F0C2CFB8CF2C967A
S1130E800FB6F894DEBF0FBECDBFDF91CF911F9197
S1110E900F91FF90EF90DF900895F894FFCF3C
S1130E9E0101010A003132333435363738392A30FC
S1130EAE2342414E5249535546524753004C4F47E5
S1130EBE494E3A2000564F4C5445490053454E482E
S1130ECE413A20005B315D53617175655B325D5350
S1130EDE616C646F5B335D506167616D2E5B345D75
S1130EEE53616972005B315D426F6C65746F005BB8
S1130EFE325D44696769746163616F0045534341B0
S1130F0E4E454945204F20424F4C45544F00496EA3
S1130F1E76616C69646F2C00646967697465206E10
S1130F2E6F76616D656E74650053657373616F20C2
S1130F3E656E6365727261646100536171756520DB
S1130F4E6170726F7661646F210053616C646F20FF
S1130F5E696E73756669632E210053616C646F3A12
S1130F6E005224004E616F206175746F72697A614C
S1130F7E646F00436169786120626C6F717565619D
S1130F8E646F00494E415449564944414445004416
S1130F9E455445435441444100436169786120629C
S1130FAE6C6F71756561646F41003D3D42414E52F7
S1130FBE495355465247533D3D001F1C1F1E1F1ECD
S1130FCE1F1F1E1F1E1F56616C6F7220646F2073CD
S1130FDE617175653A002E0056616C6F72203E3158
S1130FEE32303000446967697465206E6F76616DC6
S1090FFE656E746500003D
S9030000FC
